:020000041000EA
:4000000000400208DB0300100D0000003D04001000000000000000000000000000000000000000000000000000000000390400100000000000000000390400103904001043
:4000400039040010390400103904001039040010390400103904001039040010390400103904001039040010390400103904001039040010390400103904001039040010B0
:4000800010B5064C2378002B07D1054B002B02D0044800E000BF0123237010BD1005000800000000EC0F0010044B10B5002B03D00349044800E000BF10BDC046000000008B
:4000C00014050008EC0F001010B562B6034800F059F9002000F0BEFDFBE7C0460000081010B5002000F09AFB10BD7047F8B5E023524C9B00E2580F23D0211A4093008900F5
:400100001B19585807210840032860D0042861D0414248414A49404208404A494018002A67D1B223B1210327DB00C900E658635865582D0F3D4204D06258120F3A40012AC3
:4001400001D1F20703D49B009B0F032B11D1B0233D4ADB00E658A158E558C904C90C00F027FEB3039B0B5843E901C90F013100F01FFEE0239B00E3589B069B0FD840334B76
:400180001860334B1C691969240A090E013100F00FFE304BE1B21860013100F009FE2E4B040018602D4B2E4918602E4BC01800F0FFFDFA212C4B890018702C4BE01800F084
:4001C000F7FD2B4B18602B4BC0031860F8BD2A490868A4E7C0211F20890059580140112904D0132902D0FA20C00198E78020000295E7013A012ABCD80327204A9E58204A2C
:4002000099589D582D0F3D4204D09D582D0F3D40012D01D1F50703D48900890F0329A8D19E5899589D587F2333401F26090A3140584300F0BDFD290C314098E70000264078
:4002400000DC0BFF00366E018405000088000008000021408C000008800000089400000840420F003F420F009C000008E70300009800000890000008840000083C0600000C
:40028000FC05000010B5244800F0E6F8B022E0213020224CD200A35889005B005B08A35063588343635080235B04A3501C4B1D4AE250A02204339201E250FF221A4BE25007
:4002C00000F054FDC02201215200A3588B43A350FFF70BFFFFF70AFFB0235B055A78002A02D05B78212B03D10022104BDA605A600F4A8021042000F0D9FA0E4800F098F98F
:400300000D4B1B6851331B78002B02D00B4800F0CBF900F055F910BD340F00100000264084050000010002008C050000E00023402C0500083C0500081C070008000F0010D7
:40034000024BD86F032318407047C0460400214010B500F026FD0749074ACB6F1A40074B1343CB67102306490A681A42FCD000F01CFD10BD04002140FCFF00000100FA0510
:400380008800214070B50F4C060000F00AFDE36F0500DB439B0701D1FFF7DAFFB0230A4A9B00D650E36F094A09491A40094B1343E36710230A681A42FCD0280000F0F5FC1C
:4003C00070BDC0460400214000002140FCFF0000880021400300FA057047FFF7FDFF72B60F4C104DAC4209DA21686268A368043B02DBC858D050FAE70C34F3E70A490B4A67
:400400000020521A02DD043A8850FCDC084809490860BFF34F8FFFF735FFFFF755FEFEE7F00F00100810001010050008200700080000000808ED00E0FEE7FEE700B504206E
:400440007146084202D0EFF3098001E0EFF30880043000F031FBFEE7014B18607047C0461C070008044B1B681A00B03212881B6A5043C0187047C0461C070008224A030063
:4004800090420DD017D8402832D00AD8002807D0103B584243411D485B4218401C4BC0187047802826D0013BFF3B58424341F82258429043F2E7174A90421DD00BD8A02243
:4004C000002012069342EBD0134A9B185842434112485B42E1E7124A904210D0114A90420FD0114A831858424341FD225842E0E70E48D5E70E48D3E7A420C003D0E70D48E4
:40050000CEE70D48CCE7C0460600520002FFFDFFFF005200010000F0F7FFFF5F01FFFDFF040000F0050000F0FDFFFF0F0200500005005200020052000300520010B50020E7
:40054000FFF790FF0A4B1C682300B4331B68C0180368002B0ADB074B1868FFF78FFF012263689A609A68002AFCD110BD0248FCE71C070008BC060008020050000D4B10B5A8
:400580001860002804D0FE235B42038000234380094B1B681A0050321278002A08D051331B78002B04D002220449002000F0E0F810BDC046CC0600081C0700080D01000844
:4005C00010B50248FFF7DAFF10BDC046D0060008064B1B68B4331B68C3181B68002B03DA89B24160002070470148FCE71C07000801008A000368002B04DA89B2C260816081
:40060000002070470048FCE701008A00064B1B68B4331B68C3181B68002B03DAC36800200B6070470148FCE71C07000801008A00024B1A68002A00D118607047D40600085F
:40064000F0B52C24444315481F0000681D0A0019FF2425402740124C1B0C26680760346A45608360B036368877433F1907612F0080376D017F01E71964190A4D47611F04BA
:400680003B436419236000238361059BC2610162002B01D01B888381F0BDC046D40600081C07000808100000F0B5836885B002AD2B80154B02681B68066ADB8E476A9B186B
:4006C000AB7043680095826AC16A040003930369C068FFF7B5FF00213B000A0000913000FFF7AEFF216B280000F09AF90022AB5E002B06DB1F2213401E3A9A401300034A52
:40070000136005B0F0BDC0461C07000800E100E0F7B52C25134C6843266869433418256901937118002D19D08869002818D12E68002E15DA6768012426004B689E40B4464A
:4007400013689EB263461B041E431660EA608C61BC40019BA4B24B62AC60FEBD0248FCE70248FAE7D406000804028A0007028A002C23434306480068C018C369934204D9D8
:40078000036A00209200D15070470248FCE7C046D40600080A028A0073B5002642690400D56801962B0CB34221D01B0413601368194B00691B68B4331B68C3181B68B3428F
:4007C00015DA01A9FFF722FFB0420CD10198E26903681E0CDBB29A4205D9226A9B009B58002B00D0984731002069FFF7F1FEADB2002D09D063691D6000251B68636AAB4217
:4008000005D098476562A56163691B6873BDA36A002BF8D09847F6E71C0700082C2310B54343034A1068C018FFF7B6FF10BDC046D4060008F8B5194B0F001B681A0031321A
:400840001278824227D9002925D01F250A68154021D11900B0310C88114E60431C6AD208041929007868346000F02EFB29002000FFF7AEFE3A0029003068FFF7BBFE041E95
:4008800007D101003068FFF7A3FE03002000002B00D00448F8BD0448FCE7C0461C070008E006000801018A0003018A0010B5002A0DD1002914D10B4B1A681300B0331B885D
:4008C0004343106A084A1B180800136010BD002906D0064C216021006260FFF7ABFFF5E70348F3E71C070008E0060008D806000803018A00F7B5184F04003B680191DE68B6
:400900003368834226D90025A94202D100F049FA050038680368002B1ADA1F2201232240934064097268A4001419226813420DD09A43226000240021FFF74AFE019B002BFC
:4009400002D1280000F031FA2000FEBD034CF2E7034CF3E7034CF7E7E0060008020188000301880004018A000A4B1B68DB681A6882420DD959681F23420918401E3B83406B
:40098000920050581840431E9841034BC01870470248FCE7E00600080001880004018A00144B30B51A680724130028331B78012B15D183081D00A5432C1E0FD10334204006
:4009C000A040814012689B002032D3180A00FF2181401C68624011406140196030BD802320401B06184380239B011268C91889008850F3E71C070008064B9A680300064878
:400A000010339B00824202D1985899507047034AD058FBE700ED00E00000000800000010F8B506000D0000283AD00023C05E002828DBB178FFF7B4FF0024FF2203279446FC
:400A40000023F05E716883B21F40FF006646BA4089013140D243B940002815DB114E83089B009B19C026B6009F593A40114399510D4B9A680D4B9A4202D12900FFF7BCFF12
:400A80002000F8BD0A4CD8E70F263340083B064E9B089B009B19DE6932401143D961E7E7034CEDE700E100E000ED00E00000000801005600FEE7000002680A4B10B51A6013
:400AC00042685A6082689A60C268DA6002691A6142695A6182699A61C269DA61FFF7EAFF10BDC046F0040008B0235B055A782120002A01D05878C0B27047B0235B059A8974
:400B0000002A02D0988980B2704780204000FBE730B5214B800085B00D00C458042901D001291AD100200FE0A3682B420BD1E36829001A685B6802920193039302A823689C
:400B40009847164B1C606469002C04D0144B9842EAD1012DE8D105B030BD022906D10F4B1B68181EF7D01C6903E01C006369002BFBD10020002CEED0A3682B4209D1E368A5
:400B800029001A685B6802920193039302A8236898472469EEE7C0460807000804070008FF004200F2220E4BD2011B68DB689A580260F022D2019A5842600A4A9A58826027
:400BC000094A9A58C260094A9A580261084A9A584261084A9A588261074A9B58C36170471C07000804780000087800000C780000107800001478000018780000F0220E4BFF
:400C000041681B68D201DB68995081680B4A9950C1680B4A995001690A4A995041690A4A99508169094A9950C169094A99500168E83299507047C0461C0700080478000011
:400C4000087800000C780000107800001478000018780000F7B53F4D07006B68002B4AD100F09FF86B680190002B56D13A4E33681A0043321278002A07D09B68E0331B6861
:400C8000DB0602D53548FFF78DFFFFF736FF80235B00984246D1380000F02AF9002433681A0043321278002A17D0002815D09B68E0331B68DB0610D5FFF716FF274B2128FD
:400CC00008D032681300B033198807234B43126A9B18DB681800FFF791FF019800F065F8002C0ED16B68002B03D008210120FFF70FFF2000FEBD01210800FFF709FF041EEE
:400D0000AED06B68002B03D002210120FFF700FF134B9C42EDD0134CEBE704210120FFF7F7FEA3E732681300B4331B68126A9B181B68002B0BDB04230B4A11690B431361B4
:400D4000012F02D030BF0020A8E720BFFBE70020034CA4E7080700081C070008E406000805004200FF00420000ED00E0C0228020064952008B58C0059B009B0803438B5065
:400D8000802388581B0603438B507047000026400230800803D001300238FCD1C046C0467047EFF3108072B6704780F310887047002243088B4274D303098B425FD3030A1D
:400DC0008B4244D3030B8B4228D3030C8B420DD3FF22090212BA030C8B4202D31212090265D0030B8B4219D300E0090AC30B8B4201D3CB03C01A5241830B8B4201D38B034F
:400E0000C01A5241430B8B4201D34B03C01A5241030B8B4201D30B03C01A5241C30A8B4201D3CB02C01A5241830A8B4201D38B02C01A5241430A8B4201D34B02C01A5241F9
:400E4000030A8B4201D30B02C01A5241CDD2C3098B4201D3CB01C01A524183098B4201D38B01C01A524143098B4201D34B01C01A524103098B4201D30B01C01A5241C30848
:400E80008B4201D3CB00C01A524183088B4201D38B00C01A524143088B4201D34B00C01A5241411A00D20146524110467047FFE701B5002000F006F802BDC0460029F7D01E
:400EC00076E770477047C04603001218934200D1704719700133F9E7F8B5C046F8BC08BC9E467047F8B5C046F8BC08BC9E46704701B40248844601BC604700BF690200080F
:400F000003000000010000000100000000000000050360000400000001000000000000000100000006046000080000009C060008E10000100000214000002540000001402A
:400F40000000344000002440000031400000324000001F410000234000001140010101010101010101101010800019005500F0000501053B04101C01010000000FC0000044
:400F80000004000001010101011D3A57789600082000101208000000001F00000010000F002000023F06080E00080009000A000B24282C30340000001000000090000000BD
:400FC00088000000080000008000000004F0000000F00000400200002005A000D00100018001A001200000001000000000000000000000100000000880000000101000100A
:401000008000000870040000100500081002000000093D0000127A0000127A0000093D000000D00700093D00A00F000004000000A90000108100001080B230B5C00020D000
:40104000104B07221C682300B0331B885A43236AD31819680029FCDA3E210B4B062519600A4B0B491960A3210A4BC9005D500A4958505858206A1218002050605A58002A15
:40108000FCDA30BD1C07000804012640080126401E1F0000000026401C05000010B54378FF2B11D100F0A4F90400042000F0D0F9C3685A680123116819431160116819427F
:4010C000FCD1200000F0A4F910BDF7B500900020019100F0BDF93F4D06002B681A005033B43214681B780419002B5AD000F078F9070003281BD000F07BF9374A374B050002
:40110000D358002B3EDA364A0121300000F090F9002837D10198FFF78FFF009B002B3ED02368002BFCDB00F06BF904002BE0062000F08EF92B68B4331B68C0180368002BDD
:4011400002DA284C2000FEBD002000F091F9264B9842F6D00023254A19001268012000F05FF90025A842ECD1002000F081F91E4A1F4B904203D09D42E3D00135F4E79D42BC
:40118000B9D1DEE7174C032F05D10121002000F057F90028F9D1280000F03AF9D2E7154CF1E700F025F90E4A05000121300000F03FF9002809D1009B002B08D02368002B89
:4011C000FCDB00F01DF90400E5E7064CE3E7094CE1E7C0461C070008000026401C050000BC0600080500520001018800CC060008F049020001005000F7B56E4D04002A6843
:40120000536800931300B033198807234B43126A9B181A68002AFCDA00F022F92A681300B033198807234B43212800D096E0116A5B180221D8680143D960D968C9072FD502
:4012400008208446944460461600D968C06F01911168883608183568076849190D683902FF273F040F40694689882D0A2D0639432943D960902103684F4D09012B400B43F3
:401280000360136830681B18186805402943196013686246D26F9A18126832689B181B68444D2A681300B033198807234B43126A9B1800225A600423404A11690B43136111
:4012C000012C50D030BF2A681300B033198807234B43126A9B181A68002AFCDA00F0C0F8212842D1296807220B000124B0331B8800205A430B6AD318DD6825421CD00800EF
:4013000008300D68C06F2C4E28180568DB6835401B0C1B061B0C2B4303600B00883318680B6818180B6A0568D318DB682E401B0E1B023343036020000B6A0221D218D3684F
:401340008B43D3601B4B1A681300B033198807234B43126A9B1800225A60FEBD126A9B18174ADA609CE720BFADE70020009BFC331B698342E6D1A320124B1349134A144F89
:40138000C0000E681D5814680F6006271F503E20106010483E371F501F58002FFCDA00980D4FFC3007610E60A321C9005D5001201460C7E71C070008FF00FFFF00ED00E00D
:4013C000E40600080000264008012640040126401E1F00001C050000AAAAAAAA0000000001B40248844601BC604700BF4103001001B40248844601BC604700BFA30D0010C9
:4014000001B40248844601BC604700BF3D05001001B40248844601BC604700BFAB0D001001B40248844601BC604700BF1107001001B40248844601BC604700BFF5050010B0
:4014400001B40248844601BC604700BFF508001001B40248844601BC604700BF6504001001B40248844601BC604700BFE90A001001B40248844601BC604700BF69090010B1
:40148000000000000000000000000000000000000000000000000000000000000000000000000000000000000000000000000000000000000000000000000000000000002C
:4014C00000000000000000000000000000000000000000000000000000000000000000000000000000000000000000000000000000000000000000000000000000000000EC
:4015000000000000000000000000000000000000000000000000000000000000000000000000000000000000000000000000000000000000000000000000000000000000AB
:40154000000000000000000000000000000000000000000000000000000000000000000000000000000000000000000000000000000000000000000000000000000000006B
:40158000000000000000000000000000000000000000000000000000000000000000000000000000000000000000000000000000000000000000000000000000000000002B
:4015C00000000000000000000000000000000000000000000000000000000000000000000000000000000000000000000000000000000000000000000000000000000000EB
:020000041008E2
:40000000007804087B0508100D000000E1050810E1050810E1050810E105081000000000000000000000000000000000DD050810DD05081000000000DD050810DD050810B7
:40004000DD050810DD050810DD050810DD050810DD050810DD050810DD050810DD050810DD050810DD050810DD050810DD050810DD050810DD050810DD050810DD050810E0
:40008000DD050810DD050810DD050810DD050810DD050810DD050810DD050810DD050810DD050810DD050810DD050810DD050810DD050810DD050810DD050810DD050810A0
:4000C000DD050810DD050810DD050810DD050810DD050810DD050810DD050810DD050810DD050810DD050810DD050810DD050810DD050810DD050810DD050810DD05081060
:40010000DD050810DD050810DD050810DD050810DD050810DD050810DD050810DD050810DD050810DD050810DD050810DD050810DD050810DD050810DD050810DD0508101F
:40014000DD050810DD050810DD050810DD050810DD050810DD050810DD050810DD050810DD050810DD050810DD050810DD050810DD050810DD050810DD050810DD050810DF
:40018000DD050810DD050810DD050810DD050810DD050810DD050810DD050810DD050810DD050810DD050810DD050810DD050810DD050810DD050810DD050810DD0508109F
:4001C000DD050810DD050810DD050810DD050810DD050810DD050810DD050810DD050810DD050810DD050810DD050810DD050810DD050810DD050810DD050810DD0508105F
:40020000DD050810DD050810DD050810DD050810DD050810DD050810DD050810DD050810DD050810DD050810DD050810DD050810DD050810DD050810DD050810DD0508101E
:40024000DD050810DD050810DD050810DD050810DD050810DD050810DD050810DD050810DD050810DD050810DD050810DD050810DD050810DD050810DD050810DD050810DE
:40028000DD050810DD050810DD050810DD050810DD050810DD050810DD050810DD050810DD050810DD050810DD050810DD050810DD050810DD050810DD050810DD0508109E
:4002C000DD050810DD050810DD050810DD050810DD050810DD050810DD050810DD05081010B5054C237833B9044B13B10448AFF300800123237010BD084802080000000032
:40030000F40F081008B5034B1BB103490348AFF3008008BD000000000C480208F40F081008B500F00BF862B6034C2025E5604FF47A7000F021FDF9E70006324000F000B8F8
:4003400010B5064C064A0421204600F05FFA2046044A0521BDE8104000F058BA00063240A00E0810D40E0810012000F003BC7047584BD3F8801301F00F018A0002F1804271
:4003800002F5181210B5D2F8400300F00700032862D0042863D0504C504B002808BF234600296CD14B4AD2F89005D2F88815D2F8884514F0405F05D0D2F88825C2F3017299
:4003C000012A01D1C40703D4C1F30172032A13D1404AD2F88015D2F88405D2F88025C0F30C00B3FBF0F0C1F3110303FB00F1C2F300630133B1FBF3F3364A3948D2F880232B
:40040000C2F30112D340374A1360374AD2F890101269120E0132B3FBF2F20260C1F307220132B3FBF2F3314A31491360314A136003F5742202F23F22B2FBF1F22E4903F268
:40044000E7330A704FF47A72B3FBF2F32B4A13602B4ADB03136010BD2A4B1B68A0E7D2F8003303F01F03112B06D0132B0CBF4FF400434FF4FA4393E74FF4004390E7013948
:400480000129B9D8D2F83C46D2F8FC15D2F8FC0510F0405F05D0D2F8FC05C0F30170012801D1E00703D4C1F301710329A4D1D2F8FC15D2F8FC45D2F8FC0501F07F025343F3
:4004C000C4F30422B3FBF2F3C0F30442B3FBF2F392E700BF0000264000127A0000366E01EC420208E842020800002140E042020840420F00F4420208FC420208F8420208DB
:40050000F0420208E442020808B50D4800F076F8FFF72DFFFFF72CFF00221146042000F067FB084800F036FA074B1B6893F8513013B1064800F06AFABDE8084000F038B928
:400540003C0F081024480208F0490208080F081008B500F08AFC074AD2F8883043F47003C2F88830BFF34F8FBFF36F8FBDE8084000F07FBC00ED00E07047FFF7FDFF72B618
:40058000104C114DAC4209DA21686268A368043BA2BFC858D050FAE70C34F3E70B490C4A00209142BCBF41F8040BFAE709480A490860BFF34F8FFFF7CBFFFFF7A5FFFFF74A
:4005C000AFFEFEE7F80F08101010081008480208F44902080040020808ED00E0FEE7FEE700B504207146084202D0EFF3098001E0EFF30880043000F0D9FBFEE7014B186085
:40060000704700BFF0490208034B1B681A68D3F88430D058000E7047F0490208044B1B681A68D3F88430D058C0F30720704700BFF0490208034B1B68B3F8B0201B6A00FBA5
:4006400002307047F0490208214B98423ED014D840282FD008D8002838D01E4AF93310280CBF104618467047802825D01A4AB0F5807F0CBF184610467047184B98421DD090
:400680000AD8B0F1204F1CD0154A134B904214BF18464FF4A0007047124B984213D00133984212D01049114A0B4B88420CBF1046184670470E4870470E4870474FF4A400ED
:4006C0007047002070470C4870470C48704700BF0600520001005000FF005200010000F0090000A0040000F0030000F0010052000200500005005200020052000300520077
:4007000010B50120FFF796FF094B1C68D4F8B430C358002B0ADB074B1868FFF795FF636801229A609A68002AFCD110BD0248FCE7F0490208A449020802005000174B13B5A8
:40074000186020B14FF60273038000234380144C236893F85010F1B11B8FADF80030114900236846019300F0DDFABDF90030002B08DB5909012203F01F0302FA03F30A4ABC
:4007800042F82130236893F8513023B102220749012000F09BF902B010BD00BFB4490208F04902089343020800E100E0614302080148FFF7C3BF00BFB8490208124B70B546
:4007C0001C68A3696669C01AC0090001032900EB060402F01F024FF01F0309D88459CD00AB4024EA030302FA05F10B43835170BD04396068C9008B4020EA030302FA01F1FF
:400800000B436360F3E700BFF04902082DE9F8430F4616460446002800F08980002A00F0868013684FF0010808FA01F8002B7BD1C0F80480DFF80091D9F8003093F87D104C
:40084000BD000B590F22AA4023EA0203726802F00F02AA4013430B51327A39462046FFF7ADFFD9F800C09CF87CE003235EF804007A0003FA02F120EA0101F0681840904087
:4008800008434EF804003169A0696FEA080E01F0010100EA0E00B9400143A1619CF87E10706951F8049000F0010009EA0E0EB84040EA0E0008519CF87FE0B169F0695EF84A
:4008C00004901032184001F001019340904043EA0808B940014329EA080841EA08014EF80410736AB06A9CF880205B00800000F0040003F002030343306A115900F00100DC
:400900000343F06AC00000F018000343306B4001C0B2034305F47E75AB4021F0FF010B4313510020BDE8F883C0F8088082E70148F8E700BF01005A00F0490208054B1B689A
:40094000D3F8B430C358002BBDBF89B24160002001487047F049020801008A000368002BBFBF89B2C26081600020A8BF0048704701008A00054B1B68D3F8B430C358002B11
:40098000BDBFC3680B60002001487047F049020801008A00024B1A6802B91860704700BFBC490208F0B52C246043164C059F25685FFA83FE45F800E02C1813480668306AE7
:4009C000B6F8B060C3F307254FEA134C0EFB06062661634605F18006656000EB46161B0400EB451041F2080543EA0C03C4F808C0666143510023C4E90721A3610FB13B88B9
:400A0000A381F0BDBC490208F0490208F0B5174B826919684369C98E85B002ADD0E903670B440095C16AADF8083004460392D0E90932006AFFF7B6FF00223B4611460092B6
:400A40003046FFF7AFFF216B284600F06BF9BDF90830002B08DB5909012203F01F0302FA03F3034A42F8213005B0F0BDF049020800E100E0F0B5124C25682C2404FB005613
:400A800004FB01513569B5B18869B0B92C68002C13DAD6F804C04E68012404FA06F7168846EA07461660EA608C6104FA0CF4A4B24B62AC60F0BD0348FCE70348FAE700BFD7
:400AC000BC49020804028A0007028A00074B10B51C682C2303FB0040C369934289BF036A034843F82210002010BD00BFBC4902080A028A0073B54369DD6800262A0C04461E
:400B000001961FD02A0C12041A601B68184B00691B68D3F8B430C358B34213DA01A9FFF729FF58B90198E26903681E0CDBB29A4204D9226A52F8233003B198473146206997
:400B4000FFF7FCFEADB24DB163691D601B68636A43B19847002363620023A36163691B6802B070BDA36A002BF6D09847F4E700BFF0490208034B1B682C2202FB0030FFF783
:400B8000B9BF00BFBC490208F8B5154B1B6893F8312082420C4621D901B30A6812F01F071CD1B3F8B0501B6A0E4E00FB0535D20839466068356000F05FF939462846FFF796
:400BC000BDFE394622463068FFF7C8FE014618B93068FFF7B3FE00B10348F8BD0348FCE7F0490208C849020801018A0003018A0010B404466AB9A9B90B4B1B68B3F8B0008A
:400C00001B6A04FB0030094B186008465DF8044B704739B1064B5DF8044BC3E900121946FFF7B2BF0348F1E7F0490208C8490208C049020803018A002DE9F0411A4E3268BD
:400C4000D2F80C80D8F80020824204460D4628D919BB00F00AF9074630680368002B1EDAD8F8041004F01F026409012303FA02F251F8243013421CBF934341F824304FF0A8
:400C8000000114BF0024094CFFF758FE15B9384600F0EFF82046BDE8F0810027DCE7044CF4E7044CF6E700BFC8490208020188000301880004018A000B4B1B68DB681A689C
:400CC00082420ED941095A6800F01F00012303FA00F052F821301842044B054808BF184670470448704700BFC8490208000188000101880004018A00074B9A6800F11003D9
:400D00000648824213BF064A52F8230042F8231052F82300704700BF00ED00E0004002080000081010B50346E8B1B0F900005B680E4C0028B5BF00F00F0200F16042043AB8
:400D400002F56142B8BF12194FEA4313DBB2ACBF82F800331376A268054B9A4201D1FFF7CBFF002000E0034810BD00BF00ED00E0004002080100560038B5094D0446B4F537
:400D8000004F06D8074B18686043BDE8384000F063B8286800F060F8A4F50044EFE700BFF0420208F8420208FEE7000008B5234B02681A6042685A6082689A60C268DA60FF
:400DC00002691A6142695A6182699A61C269DA611B4A916A1962D16A5962516A9962516BD962926B1A63F1EE102A12F0900F21D0026A5A63426A9A63826ADA63C26A1A6413
:400E0000026B5A64426B9A64826BDA64C26B1A65026C5A65426C9A65826CDA65C26C1A66026D5A66426D9A66826DDA66C26D1A67026E5A67FFF7B8FF08BD00BF9047020850
:400E400000ED00E04FF0B0535A7812B15878C0B270472120704700000230800803D001300238FCD100BF00BF7047EFF3108072B6704780F31088704702440346934200D19B
:400E8000704703F8011BF9E7F8B500BFF8BC08BC9E467047F8B500BFF8BC08BC9E467047000000000600000000000000000000000000000000000000000000000000000080
:400EC00000000000000000000000000000000000000000000000000006000000000000000000000000000000000000000000000000000000000000000000000000000000EC
:400F00000000000000000000030000000100000001000000000000000503600004000000010000000000000001000000060460000800000084490208690308100000214010
:400F400000002540000001400000344000002440000031400000324000001F410000234000001140010101010101010101101010800019005500F0000501053B04101C016E
:400F8000010000000FC000000004000001010101011D3A57789600082000101208000000001F00000010000F002000023F06080E00080009000A000B24282C30340000008D
:400FC000100000009000000088000000080000008000000004F0000000F00000400200002005A000D00100018001A0012000000010000000000000000000081000400208D0
:40100000E002000018100810E0420208B004000008480208EC01000000127A0000127A0000127A0000093D000000A00F00127A00401F00000800000005030810E1020810C0
:4010400080B210B5C40008B3114B1968B1F8B0300A6AC3EBC3031A4410680028FCDA0D4A3E20106041F61E705060A2F582720620C2F81805C2F81C45096AD2F81C050B44EE
:4010800000215960D2F81C35002BFBDA10BD00BFF04902080401264008B54378FF2B13D100F0FEF90146042000F002FAC3685B681A6842F001021A601A68D207FCD40846A5
:4010C000BDE8084000F0E0B908BDF8B51D4E052000F0EEF933685A684FF260030746D45800F0DEF93368A4B21A68D3F89030013C032C02EB03010546D3581ED8032B07D193
:40110000114B1B7823B90823BB600B68032BFCD000F0B2F9014600F0B3F9431C0B4801FB033358430A4B4FF47A721B68B3FBF2F3B0FBF3F08230FFF783FF2846BDE8F84097
:4011400000F0A2B9F04902080B00001640420F00E84202082DE9F04780460120894600F0A7F93E4B1B68D3F8B41093F8503006464718002B5AD03A4B1B7803F0FF04002B89
:401180003CD1052000F094F94358002B03DA354C2046BDE8F087204600F086F9324DA842F5D0324A234612680121204600F060F90028ECD10446DFF8C4A000E00134002008
:4011C00000F072F9A84202D05445F7D1DFE75445DDD0012500F064F9254BD3F81C35002B82460DDB1F4C2DB10121002000F054F90028F9D1504600F047F9C9E70025E9E76C
:401200001C4A0121304600F057F90028EAD14846FFF716FFB8F1000F06D03B68002BFCDB00F04EF90446DEE7134CDCE700F038F9104A05460121304600F03EF950B9B8F122
:40124000000F09D03B68002BFCDB00F039F904462846D0E7034CFBE7074CF9E7F04902080B0000160500520001018800B449020800002640A449020801005000F0490200B7
:4012800073490A68F8B5B2F8B0305468126AC3EBC303054613441A68002AFCDA00F0F8F8212840F09A800B68B3F8B020186AC2EBC2020244D06840F00100D060D068800707
:4012C0002CD51E68D3F884C0D2F80CE0D3F8887056F80C00F759000200F47F001FFA8EFE40EA0E003F0A40EA0760D06056F80C2022F47F4242F4106246F80C20D3F8880023
:401300001E68325822F47F4242F4106232501A68D3F88400D3F888301058D3580A684D4EB2F8B030106AC3EBC3030344002058601368D2F8942048481A4401270369012D68
:4013400043F00403036152D030BF136803F00303022BF3D00A68B2F8B030126AC3EBC30313441A68002AFCDA00F092F8212844D10C68B4F8B030256AC3EBC3031D44E86809
:4013800010F0020019D0D4F884602768B859EA68120A20F47F4002F47F420243BA51206A2668D4F8885018447259C06822F47F42000E42EA002272510120226A1344DA6863
:4013C00022F00102DA600A68B2F8B030126AC3EBC303134400225A60F8BD0A68B2F8B030126AC3EBC30313441C4ADA6096E720BF337803B120BF3770A7E7D4F80C312BBB29
:40140000174B1848184A0768D3F81865156841F61E7CC0F800C04FF0060CC3F818C54FF03E0CC2F800C04FF0440CC3F81CC5D3F81CC5BCF1000FFADA4FF0AA3CC4F80CC10A
:401440000760C3F8186501201560BCE70020BAE7F0490208EC49020800ED00E0CC490208000026400801264004012640000000005FF800F0750A08105FF800F009060810D9
:401480005FF800F01D0608105FF800F0730E08105FF800F0450E08105FF800F0390C08105FF800F06B0E08105FF800F0B90C08105FF800F0350608105FF800F05D09081019
:4014C0005FF800F001070810000000000000000000000000000000000000000000000000000000000000000000000000000000000000000000000000000000000000000085
:4015000000000000000000000000000000000000000000000000000000000000000000000000000000000000000000000000000000000000000000000000000000000000AB
:40154000000000000000000000000000000000000000000000000000000000000000000000000000000000000000000000000000000000000000000000000000000000006B
:40158000000000000000000000000000000000000000000000000000000000000000000000000000000000000000000000000000000000000000000000000000000000002B
:4015C00000000000000000000000000000000000000000000000000000000000000000000000000000000000000000000000000000000000000000000000000000000000EB
:0200000490303A
:020000007CC8BA
:0200000490501A
:0C0000000000000000000000000D7CC8A3
:00000001FF